:020000040800F2
:1000000078090020D10200082D420008413F000875
:1000100000000000000000000000000000000000E0
:100020000000000000000000000000003142000855
:1000300000000000000000002F42000833420008CA
:10004000E302000800000000E3020008E3020008E9
:10005000E3020008E3020008E3020008E3020008EC
:1000600000000000E3020008E3020008E3020008C9
:10007000E3020008E3020008E302000800000000B9
:10008000E30200080000000000000000E302000896
:1000900000000000E3020008E3020008E302000899
:1000A000E3020008E3020008E3020008E30200089C
:1000B000E302000800000000000000000000000053
:1000C00000F002F800F0D8F812A030C80838241860
:1000D0002D18AC4201D100F0CFF80FCCA246AB46B0
:1000E0000CA730CF2D1B083F3F197C427F1E544484
:1000F0002D090426F441641EAC4201D300F0BCF883
:100100000126334200D0FB1A3343984754465D46DC
:10011000DFE700006852000088520000103A02D366
:1001200078C878C1FAD8520701D330C830C101D598
:1001300004680C6070470000704700000023002432
:1001400000250026103A01D378C1FBD8520700D30E
:1001500030C100D50B60704710B56E2902D100F098
:10016000D3FB10BD702902D100F003FD10BD66293C
:1001700002D105F005F810BD652902D105F000F89F
:1001800010BD672902D104F0FBFF10BD612902D127
:1001900004F0FEFF10BD03681B0A01D3802319433E
:1001A000692902D100F07AFB10BD642902D100F068
:1001B00075FB10BD752902D100F070FB10BD6F29D1
:1001C00002D100F081FC10BD782902D100F0BEFC04
:1001D00010BDE92902D100F01DFC10BDE42902D1B7
:1001E00000F018FC10BDF52902D100F013FC10BD81
:1001F000EF2902D100F074FC10BDF82902D100F003
:10020000B3FC10BD0368DB0901D3802319436329C4
:1002100002D101F0B2FA10BD732902D101F0B5FA92
:1002200010BDE32902D101F0BFFA10BDF32902D1BC
:1002300001F0C2FA10BD002010BD1FB50098019951
:1002400000F097FA01F026FC04000020002104F0E1
:1002500081FF401C60600020002104F065FFE06029
:1002600000F058FD00F078F91FBD10B5002000F037
:10027000EFFD00F0BBFD10BD00F017FE1146FFF7CB
:10028000DCFF04F0A5FD01F082FB03B4FFF7EDFFF6
:1002900003BC00F047FA000070B505460C46164650
:1002A00002E00FCC0FC5103E102EFAD2082E02D35A
:1002B00003CC03C5083E042E07D301CC01C5361F6D
:1002C00003E021782970641C6D1C761EF9D270BD84
:1002D0000748804707480047FEE7FEE7FEE7FEE7DE
:1002E000FEE7FEE704480549054A064B7047000053
:1002F0003B420008C1000008780300207809002074
:10030000780500207805002010B50B4601461846F8
:1003100000F0F2F910BD01E004C0091F0429FBD26E
:100320008B0701D50280801CC90700D0027070477E
:1003300000290BD0C30702D00270401C491E0229BD
:1003400004D3830702D50280801C891EE3E70022C4
:10035000EEE70022DFE70000002203098B4273D39F
:10036000030A8B4258D3030B8B423CD3030C8B42C2
:1003700021D312E003460B437FD4002243088B4273
:1003800074D303098B425FD3030A8B4244D3030B1C
:100390008B4228D3030C8B420DD30902FF2212BAE1
:1003A000030C8B4202D31212090265D0030B8B425D
:1003B00019D300E0090AC30B8B4201D3CB03C01A47
:1003C0005241830B8B4201D38B03C01A5241430B22
:1003D0008B4201D34B03C01A5241030B8B4201D312
:1003E0000B03C01A5241C30A8B4201D3CB02C01A7D
:1003F0005241830A8B4201D38B02C01A5241430AF5
:100400008B4201D34B02C01A5241030A8B4201D3E3
:100410000B02C01A5241CDD2C3098B4201D3CB018A
:10042000C01A524183098B4201D38B01C01A524139
:1004300043098B4201D34B01C01A524103098B423D
:1004400001D30B01C01A5241C3088B4201D3CB0028
:10045000C01A524183088B4201D38B00C01A52410B
:1004600043088B4201D34B00C01A5241411A00D2BB
:1004700001465241104670475DE0CA0F00D0494224
:10048000031000D3404253409C46002203098B4294
:100490002DD3030A8B4212D38901FC2212BA030A1C
:1004A0008B420CD3890192118B4208D3890192119E
:1004B0008B4204D389013AD0921100E08909C30923
:1004C0008B4201D3CB01C01A524183098B4201D325
:1004D0008B01C01A524143098B4201D34B01C01A10
:1004E000524103098B4201D30B01C01A5241C30888
:1004F0008B4201D3CB00C01A524183088B4201D3F7
:100500008B00C01A5241D9D243088B4201D34B0011
:10051000C01A5241411A00D2014652411046634668
:100520005B1001D34042002B00D54942704763461F
:100530005B1000D3404201B50449002802DC491C8D
:10054000084000E00846C046C04602BDFFFFFF7FEE
:10055000704770477047000008487CB578440090A9
:1005600007487844009C0546019004E02046016855
:1005700008188047241DAC42F8D17CBD684F0000AC
:10058000664F000070B5064600F0D2F805683046A8
:100590000B30C408E400B44201D8002070BD686884
:1005A0002A46002818D00168A14211D30B462146E3
:1005B00008318B4208D3436801194B6003681B1B49
:1005C0000B605160046001E041685160001D70BD26
:1005D000024640680028E6D12146284600F0B4F8DB
:1005E0000028DCD170BD70B50446051F00F0A0F8EE
:1005F0000068002C1AD0446801E020466468002C92
:1006000001D0AC42F9D301680A18AA4204D12A6881
:1006100005468918016000E0456028684119A1423B
:1006200005D16168696021684018286070BD6C6000
:1006300070BDF7B514460E4600F07AF807683046EC
:100640007142884301D1042E02D203B00520F0BDCF
:100650000720761E064320460B30C508ED00A54254
:1006600036D938467C68002C2CD03146221D5242A7
:10067000114022688A4221D9521AAA421ED3002967
:1006800009D02246136864185B1A236053686360BC
:100690001160426010462946226808318A4205D31B
:1006A0006119521B0A602560416008466168241D7B
:1006B00041600098046003B00020F0BD20466468EB
:1006C000002CD2D12946384600F03EF80028C8D187
:1006D00003B00620F0BD10B50B460146184600F0E9
:1006E00027F910BD10B5002000F0D3FBFFF7BDFDCA
:1006F000012000F017F810BDF8B5074615460E4664
:100700001020FFF73FFF040009D06760A660E56096
:1007100000F012F80168216004600020F8BD01209B
:10072000F8BD000001491820ABBEFEE7260002001C
:10073000004870471C010020004870474C01002011
:10074000704770477047704738B504460A46002026
:100750006946C046C046002805D00246204600999A
:1007600000F0C2FB012038BD10B5012001F03CF9BA
:1007700010BDF8B5C046C046054600200C460C200A
:10078000C0460646A819A0420DD932466946002047
:10079000C046C046070001D101F026F90098A042EA
:1007A00000D00546C419FFF7C3FFF61D07460560D4
:1007B000F008C0004619284600F008F8B44204D0FA
:1007C00031463868A21B00F08FFBF8BD00210160A4
:1007D000416070470C20704770B504468569006819
:1007E000C10601D5302600E02026C00707D070BD25
:1007F00062683046A1689047206A401C20626D1EE6
:10080000F6D570BD70B5044685690078C00707D17C
:1008100070BD6268A16820209047206A401C206259
:100820006D1EF6D570BD09684A0501D540B2704706
:10083000C905FCD500B2704709684A0501D5C0B2A8
:100840007047C905FCD580B2704770B50C460546A7
:10085000012A05D02878800600D5EA69002302E045
:10086000012305E05B1C934202D2E05C0028F9D131
:10087000A869E618C01AA861286AC0182862284624
:10088000FFF7AAFF04E06A682078A968641C904713
:10089000B442F8D32846FFF7B5FF70BDF7B5002581
:1008A00075291068009914A611D0FFF7BCFF002825
:1008B00002DA404211A608E0009909688A0701D5CA
:1008C0000FA602E0490704D50EA6012501E0FFF7B7
:1008D000B3FF009F0024243704E001F08BF830318F
:1008E0003955641C0028F8D12B4632462146009821
:1008F00000F051FBFEBD0000000000002D000000D4
:100900002B0000002000000011680268006A5305F7
:1009100001D5087009E0D30501D5088005E013066C
:1009200002D5C21705C100E0086001207047000031
:10093000084B70B50D467B4400F001FF0446284685
:1009400000F03EFF002802D00020C04370BD2046CA
:1009500070BD0000CD470000F7B50446154686B0CF
:100960002B487844002703C83E460090019111E0CF
:1009700007986A467100415A02A800F0E7FF411C3F
:1009800007D02178890603D5E269391891420ED83B
:100990003F18761C2078800602D5E069B84206DD53
:1009A000AE42E5DB07987100405A0028E0D1A0690B
:1009B000C01BA0612046FFF70FFF154878445A3846
:1009C00003C800900020019116E041006A46079894
:1009D000415A02A800F0BAFF0590401C0AD0002539
:1009E00005E0626802A8A168405D90476D1C05980B
:1009F0008542F6D30498401CB0420490E5DB206A9F
:100A0000C01920622046FFF7FDFE09B0F0BD0000CE
:100A10003A480000F7B5D21D0025D20815A6D2002D
:100A2000F52905CA11D0002A05DA0021404291417A
:100A300011A60A4608E0009909688B0701D50FA6A0
:100A400002E0490701D50EA601251146009F0024AA
:100A5000243704E000F062FA30323A55641C024652
:100A60000A43F7D12B4632462146009800F093FA0C
:100A7000FEBD0000000000002D0000002B00000063
:100A80002000000070B504460021243408E055071A
:100A9000D2086D0F303565545D072A43DB08491CC9
:100AA00015461D43F3D10468002310A2250708D57D
:100AB00020252C400C4304D0C46901230CA2641EE1
:100AC000C46100F068FA70BD10B504462146106894
:100AD000FFF7B2FE002302462046FFF7D3FF10BD0A
:100AE000D21DD108C9000CC9CCE7000000000000ED
:100AF00030000000F8B50F460188090502D5224CE8
:100B00007C4402E0204C7C440E3405460021243510
:100B100008E016071209360FA65D6E541E07324311
:100B20001B09491C16461E43F3D1224604780023B4
:100B3000240705D5702F06D0002901D002231132D9
:100B400000F029FAF8BD01231032F9E770B5044628
:100B50000D4621461068FFF76FFE00230246294626
:100B60002046FFF7C7FF70BDD21DD308DB000CCBBA
:100B7000C0E730B4036820241268234303600823CD
:100B8000C36130BC0023B5E7A4460000F3B50446BA
:100B9000002081B020622046E1688847002872D09A
:100BA000252802D06268A168ABE0594F00267F4437
:100BB0002046E16888472028054608DB312D06D20B
:100BC000781920380078002801D00643F0E7B007F4
:100BD00001D5042086430020E0610746A0612A2D4C
:100BE0000AD0284604F088FA002827D0B800001957
:100BF000303D0090856119E00298BA00121902C8D0
:100C0000916102902046E1688847012F054617D17F
:100C1000E06900281FDA202086431CE000980A21A2
:100C20008069484300994019303888612046E1685E
:100C30008847054604F060FA0028EFD1012F0AD05A
:100C40002E2D08D12046E16888470546202006431E
:100C50007F1C022FC3DBA069002803DA4042A06199
:100C600001200643F00701D0102086436C2D0BD0E5
:100C7000682D09D04C2D3CD06A2D38D0742D38D039
:100C80007A2D36D016E040E0E1682F4620468847AE
:100C9000B842054609D16C2F29D001208002E168B5
:100CA000064320468847054604E06C2F1DD0FF20F0
:100CB00001300643002D28D028464138192803D892
:100CC0000120C00206432035204626602946029AAC
:100CD0001646FFF741FA002810D001280BD0F61D68
:100CE000F008C0000830029055E74020E1E780207E
:100CF000D5E70020D3E7361D02964CE76268284608
:100D0000A1689047206A401C44E7206AFEBD0000AD
:100D10001E46000010B543485421FFF71AFB424815
:100D20005421FFF716FB41485421FFF712FB4048BE
:100D30003C493D4B404A01603E4803603B481060DF
:100D40005A1C0A65411C1965012101653C48354A58
:100D50003AA1784400F05EFD002804D13848784478
:100D60000C3800F03BFE38482F4A36A1784400F09A
:100D700051FD002804D1344878440C3800F02EFE90
:100D800032482A4A2FA1784400F044FD002804D1BB
:100D90002E4878440C3800F021FE40232148DC0026
:100DA0000021224600F010FD002804D02448784499
:100DB0005C3800F013FE1C4822464023002100F05E
:100DC00003FD002804D0204878445C3800F006FE7B
:100DD000164822461023002100F0F6FC002804D01B
:100DE0001A4878445C3800F0F9FD10BD0F4870B522
:100DF000006D44080B48640000F084FD0A4800F0D0
:100E000081FD0A4800F07EFD09E0206D450820467E
:100E10006D0000F077FD2046FFF7E5FB2C46002C27
:100E2000F3D170BD180000206C000020C00000202D
:100E300000000020040000200800002072000000D4
:100E40008B44000077000000754400005F44000000
:100E5000F8B50646FFF770FC0090054615E0002E39
:100E600002D0E068B0420FD1206828600098A168E5
:100E70000768606888472046FFF7B5FB0098006860
:100E8000B84202D00098E8E725462C68002CE6D14D
:100E9000F8BD10B500F08AFD00F081FD10BD000026
:100EA000004870471401002070477546FFF7F8FFAF
:100EB000AE46050069465346C008C000854618B0D6
:100EC00020B5FFF70FFA60BCB64600260027C0C564
:100ED000C0C5C0C5C0C5C0C5C0C5C0C5C0C5403DF2
:100EE000490849008D46704710B50346406801E047
:100EF00003464068002801D08842F9D31868C31817
:100F00008B4206D0CB1CD808C000001D411A521AD3
:100F10000146081D0A60FFF766FB10BD0B4670B561
:100F2000024689078008084319469D08141AA941FA
:100F300025090807054308092C194841250A010617
:100F40000D43010A2C194141200C0D0428430D0CBE
:100F500000194D41002140194D41C008690708435F
:100F6000E908840F8D002543840024184D4124197D
:100F70006D41121BAB4107E00925ED432C115219BD
:100F800063410024401C61411C460A250026551B74
:100F9000B441F1D270BDFFB504460D4681B0243096
:100FA00000902168880604D51022E06991432160F1
:100FB00000E00120A84201DD471B00E00027049863
:100FC000A1697A191018081AA0612078C00602D405
:100FD0002046FFF701FC002608E003986268A1683C
:100FE000805D9047206A401C761C206204988642EF
:100FF000F3DB2078C0060AD52046FFF7EDFB06E0BC
:101000006268A16830209047206A401C2062384600
:101010007F1E0028F4DC07E000986268A168405D4C
:101020009047206A401C206228466D1E0028F3DC91
:101030002046FFF7E7FB2078000602D5022005B026
:10104000F0BD0120FBE70000FFB50C461E468FB047
:1010500003CA089009914F007D0D00D16D1E00213B
:1010600008460020C0460321099A89050840002A45
:1010700003DA8200801840080840800D01280A9099
:1010800002DD0020C0430A90089807430DD0F048C5
:10109000F049281848430714189800281DD07542B5
:1010A000291E1DDD0A9842421BE01898012802D033
:1010B0000020302104E00020F24305E02154401CD0
:1010C000B042FBDB30460022189B002121540F99CF
:1010D0008B600A60486013B0F0BDBD1B6D1CDFE77C
:1010E0000A9A002900DA69420BA800F01BFD0BAB3D
:1010F00007CB03AB07C30899099800F07FFD6B4647
:1011000007C30146D4480918002D00910BDDD249D0
:1011100003980A9A49424018002303A9039068469D
:1011200000F0DCFF08E003990A9A0023081803A9DD
:101130000390684600F07CFF6B4607C30004000C78
:1011400003D00020C043410800E01046189A002A4E
:1011500003D00022009215461EE0751E05D4FFF74D
:10116000DDFE303262556D1EF9D501220843079627
:1011700002D000227F1C04E02078302801D1002218
:101180007F1E002A069787D01EE0112D07DAFFF791
:10119000C5FE303262556D1C02460A43F5D1084344
:1011A00003D00098002819D00EE00021681E05E049
:1011B000235C625C63542254401E491C8142F7DB6D
:1011C000A81B401E07950690079A18990020A05466
:1011D0000F98079B069A81600CC07CE711260020BF
:1011E000189059E7D21DF0B50D460446D10893B0CA
:1011F000C90003C90C900D9103F068FF02460D98D9
:10120000C00F01D02D2007E02068810701D52B20D9
:1012100002E04007C00F4001032A0F9001D0072AC7
:1012200005DB03462946204600F038FC0EE1207815
:10123000800601D5E76900E006272846652D04D021
:10124000662814D0672D69D12DE00020112F009061
:1012500001DB112300E07B1C0CAA03A910A8FFF7F7
:10126000F3FE1199002610987D1C0E9142E001209A
:101270003B460CAAC0070B900120009003A910A8C0
:10128000FFF7E2FE119D12981099002600280E9596
:1012900001D1781C0D18781B02D446427D1C761EA5
:1012A000E81B00903AE0012F00DA01270020112FFF
:1012B000009001DD112300E03B460CAA03A910A811
:1012C000FFF7C2FE11993D46109800260E91217835
:1012D00009070BD40E99A94200DA0D4603A9012D86
:1012E00004DD4A19203AD27F302A06D0B84201DA0A
:1012F000011D04DA012100910FE06D1EEFE70028C7
:1013000002DC86192D1A03E0411CA94200DD0D46BE
:10131000801B401C00900120C0070B902078000724
:1013200005D40098A84202DB0020C0430090694623
:101330000020C8720B98012102AF0337C907884209
:1013400025D0022010902B2011900B9800280BDA4A
:1013500040420B902D20119006E00B9800F04AFBC4
:1013600030317F1E0B9039701099481E0029109063
:10137000F3DC0B980028F0D111987F1E387020887C
:10138000000501D5452000E065207F1E387001A8CA
:10139000C01BC01D0B900F98002800D001204119E0
:1013A0000098C01709180B980818A169081A401E60
:1013B000A0612078C00602D42046FFF70DFA0F98EE
:1013C000002805D06268A1689047206A401C20620E
:1013D0002078C00625D52046FFF7FEF921E0002E33
:1013E00007DB0E98B04204DD03A86268805DA16847
:1013F00002E06268A16830209047206A761C401C99
:1014000020620098401E002800900AD100F042FBA4
:10141000C06862680168405CA1689047206A401C0F
:10142000206228466D1E0028D9DC07E06268387803
:10143000A1687F1C9047206A401C20620B99481EBF
:1014400000290B90F2DC2046FFF7DCF9032042E68E
:1014500001FCFFFF104D0000E1DFFFFFD21DF0B5E2
:1014600004460D46D0088DB0C00046680768314676
:10147000384603F02BFE0246F00F01D02D2307E083
:101480002068810701D52B2302E04007C00F4301EC
:101490006846002B037001D0012000E00020032AE1
:1014A0000A9001D0072A04DB2946204600F0F6FA0C
:1014B0002DE12078800601D40D2500E0E56970005B
:1014C000400D0D2D01904BDA300D00210B90084698
:1014D0000020C046032189050840002E05DA82005D
:1014E0008018C20F1018401008408015012801DD37
:1014F0000020C043A9000023182906D39C460A46B1
:101500000123183A1B07D34003E001221205CA4009
:1015100094460C31202902D33A46203900E0324665
:101520008A40002802DD002A06D119E0002817D1E0
:101530000121C9078A4213D3194663467F185E41C9
:10154000002806D10120C007824202D10846874305
:101550009E430B98310D814202D00198401C0190AE
:101560002088000502D57149794402E06F49794429
:1015700019396B460A9830221A540A980A7C401C82
:101580001A54401C0A900198002801DC302000E029
:1015900031201872019A0120002A02D0644BD2181F
:1015A00004E072003A4302D0614A521C0192002DBD
:1015B00002DC2278120703D56A462E2050720220E0
:1015C0000022864694460CE032033601120F6D1E4F
:1015D0008B5C02AA13546246521C401C9446052A96
:1015E00001DA002DF0DC002202AE08E03B0F3F01E3
:1015F000CB5C521C6D1E3354401C082A01DA002DAE
:10160000F4DC23689A0601D511E0401E704504DD24
:101610003218203AD27F302AF7D0002807DD32185E
:10162000203AD27F2E2A02D11A0700D4401E002D64
:1016300003DD3E223254401C6D1E497C3154019919
:10164000401C002906DA2D21471C315401984042E4
:10165000019003E02B21471C315401987D21C900E2
:10166000884206DBFEF786FE3030F0557F1C019184
:1016700001E0642808DB01986421FEF77BFE30302E
:10168000F0557F1C019101E00A2806DB01980A2130
:10169000FEF770FE3030F0557F1C01980A21FEF7EE
:1016A00069FE3031F1550A98A1697F1C7A1910182A
:1016B000081AA0612078C00602D42046FFF78CF8F3
:1016C000216A6E460A980818206204E06268307841
:1016D000A168761C90470A98401E0A90401CF5D1DC
:1016E0002078C00602D52046FFF776F802AE09E062
:1016F0003078761C3E280DD06268A1689047206A39
:10170000401C20627F1EF3D22046FFF77BF80DB00D
:101710000320F0BD206A4019206203E06268A168DE
:10172000302090476D1EEDD3F8E70000943C000098
:1017300001FCFFFF01694A1C02610878704700B58F
:101740008FB00291002105910549019379440391DD
:10175000114604906846FFF719FA0FB000BD00006B
:10176000E5FFFFFF10B54369002B02D0C046C0461D
:1017700001E0FFF76AF8012010BD1278014624311C
:101780000A7000224A700122ECE711680022D2435D
:10179000E8E710B54369002B02D0C046C04601E01F
:1017A000FFF7DAF8012010BD128801462431828447
:1017B0000022C2840122ECE711680022D243E8E74C
:1017C000C06880210840704770B5C468A50713D071
:1017D000650211D4D51FF93D0AD0FF3D6D1E07D01B
:1017E000FF3DFF3D022D07D101462431012305E0D5
:1017F000074E5D1EB54201D3012070BD0161C3617A
:1018000041600F2109028C431443C460002070BD65
:10181000FFFFFF00F7B516460C460098002843D09E
:10182000104600F06FF82078611C61280AD07228F9
:1018300002D0772839D102E00125002404E00225F6
:10184000042401E02D4D08240222032301270878F7
:10185000491C2B2806D0622807D02039C87F74285D
:1018600007D008E01D431443F1E7042005433C433F
:10187000EDE7102004430098214600F0CFF8411C0A
:1018800013D00021316171600121F5604902F161DD
:101890007061200704D530460222002100F068FD67
:1018A000306D384330653046FEBD0020FEBDF8B5D2
:1018B0000D460646124C206DC10704D0410804D0E5
:1018C00044086400F7E7224610E05420FEF75AFE71
:1018D000070010D07908206D490001221143084308
:1018E000542120653846FEF734FD3A4629463046F5
:1018F000FFF790FFF8BD0020F8BD00000280000057
:1019000018000020F8B504460026476900690090D9
:10191000E568A80717D0204600F0DFFD384600F044
:1019200087F8002800DA761E280502D50098FEF711
:101930005AFE4C212046FEF70CFD206D4008400069
:1019400020653046F8BD0020C043F8BDF8B5164606
:101950000C46054600F096F80368FF200230C05C94
:10196000012807D0FF2C0FD8185D00280CD00120CB
:101970002C70F8BDFF333246214608331868C7186B
:1019800028460023B847F8BD0020C043F8BD10B575
:101990000446C046C0462046FEF777FC10BD10B591
:1019A000002801D0FEF7BEFE10BD000010B50021DA
:1019B00002A000F0DDFD012010BD000053494741A9
:1019C0004252543A2041626E6F726D616C207465B0
:1019D000726D696E6174696F6E00000010B500F081
:1019E000E1FDFFF7DCFF10BD10B500F0F5FDFFF7DE
:1019F000D6FF10BD01468008081A02091018020A15
:101A00001018020C1018C008820012185200891A0F
:101A100001E0401C0A390A29FBD270470EB501913A
:101A2000009000F029FE029069460120ABBE0EBD79
:101A300008B5694600900220ABBE08BD1FB56B46D5
:101A400007C369460520ABBE04B010BD1FB56C4688
:101A50000FC469460620ABBEF6E708B5694600909C
:101A60000920ABBE08BD1CB500900A200191694653
:101A7000ABBE1CBD704708B5694600900C20ABBEDC
:101A800008BD000010B500F005F8001D10BD00BF36
:101A9000C53600000048704734010020F8B51F46E5
:101AA000044601230068DB02032601461840072A8A
:101AB00005DB002801D017A506E017A504E00028E3
:101AC00001D016A500E016A5102081432160A06971
:101AD000C01E002FA06101D0401EA0612046FEF76D
:101AE0007BFE002F09D038466268A1689047206AC3
:101AF000401C2062C01C206206E0206AFAE762688F
:101B00002878A1686D1C9047761EF8D22046FEF713
:101B100079FEF8BD4E414E006E616E00494E4600A2
:101B2000696E6600F7B516468AB0334878446C464D
:101B300003467C33C06F5A689B680DC42E487844B6
:101B4000763003AC0DC80DC43720C001081837210A
:101B50001B30FEF70FFC05460C46803D1B3C02D5B2
:101B60006442012000E000200027099010E0E00717
:101B70000CD00C2020497843794432464C39411826
:101B80006846012300F054FA6B4607C364107F1CBB
:101B9000002CECD1184F7F442E3F16E0E80712D0FE
:101BA0002001C0190EC80691089307920068F04200
:101BB00001D1981908903246012306A903A800F024
:101BC00037FA03AB07C36D10641C002DE6D10998EA
:101BD000002806D032466946012303A800F07EFAA9
:101BE00005E001233246694603A800F021FA0A9B6A
:101BF00007C30DB0F0BD0000E4360000034640000E
:101C00000A4610B5400D0BD00121C9070F24A402CC
:101C100000191C0364082143540D2143D20207E03C
:101C200000210120F2E7D40F490021435200401E59
:101C30000029F8DADB0FDB07184310BDFFB50D46AE
:101C4000144685B04868516803F027FA0091019066
:101C5000A868A16803F021FA02910390A86861685E
:101C600003F01BFA029A12188242029201D201205A
:101C700000E00020019A0B18D2180028019202D02F
:101C80008A4202D903E08A4201D2012000E000200A
:101C90000099081800906868A16803F0FEF9029A9C
:101CA00012188242029201D2012000E00020019A23
:101CB0000B18D2180028019202D08A4202D903E000
:101CC0008A4201D2012000E000200099081800900B
:101CD0002868216840004900400849084018FA492E
:101CE000471814E001994000C90F0843009001987B
:101CF00002994000C90F08430190029803994000DF
:101D0000C90F08430290039840007F1E039000987B
:101D10000028E7DA0898002801D0EC4E00E0002601
:101D2000B74201DA012000E00020002804902AD008
:101D3000F71BF806C00E15D0029B2021091A039A42
:101D40008B401A430392029A019BC2408B401A4374
:101D50000292019A009BC2408B4000991A43019263
:101D6000C14000917B110DD06F460320C11A03D5ED
:101D700000218200B95003E08A008100BA587A50ED
:101D8000401EF3D5374603980299002800D0012061
:101D9000014308980291002808460CD0002800D082
:101DA00001200199019A490508430121D20AC9027B
:101DB000D202019200E001210E9B0122D207012BE9
:101DC00002D0002B03D013E0002807D120E090427E
:101DD00004D890420CD1019B0B4209D0019B5918A9
:101DE000019105D10099491C009101D17F1C0092FD
:101DF00000280DD0102108460020C0460498002875
:101E000006D00F98002803D0082108460020C046BD
:101E100028682168019B009A4840C10F0598C907AE
:101E200039430EC009B0F0BDFFB587B0099A0898D4
:101E3000089953689268406889689646002203931F
:101E400017469446089A12685300099A5B0812686C
:101E5000520052089A1A9E4BD4180A9A002A01D0AE
:101E6000352200E04022069200220123154604920A
:101E7000DB07059324E0002D05D175460346039E3C
:101E80004D1BB34109D375466646039B491B049D10
:101E90009841059B7519AC465F4163463B4308D0AA
:101EA000059B049EDD0776082E435B080496059388
:101EB00001E0521E641EC50FED0749184041521C37
:101EC000069B9A42D7DB002D04D17546039A6B1A04
:101ED000824101D203200CE0039A0B466B40424042
:101EE000134303D0014303D0012002E0022000E0AD
:101EF0000020614601910021009702910A99002972
:101F000005D0614640020143704B019102E0800719
:101F1000002302909C4201DA012000E0002007002B
:101F20003AD01A1BD006C00E15D0029D2021019C6C
:101F3000091AC5408C402543029C8C4000D00124E6
:101F40002543019C0295009DC4408D4000992C437F
:101F50000194C140009154111DD06D460221002210
:101F600002290CD10320001B07E0002804DB8600B7
:101F7000AE59002E00D00122401C0328F5DB081BBF
:101F800002D588002A5004E08000285810438A00B7
:101F9000A850491EE3D51C460A98002802980CD088
:101FA000002800D001200199019A49050843012128
:101FB000D20AC902D202019200E00121109B012243
:101FC000D207012B02D0002B03D013E0002807D149
:101FD0001FE0904204D890420CD1019B0B4209D0E3
:101FE000019B5918019105D10099491C009101D11B
:101FF000641C009200280CD0102108460020C04626
:10200000002F06D01198002803D008210846002090
:10201000C04608980999019A009B006809684840E1
:10202000C10F0798C907214382600AC00BB0F0BDF9
:1020300000B585B0019300920A460146002302A82C
:10204000FFF7FCFD02A807C805B000BDFFB50A46B2
:102050001F4685B00799019301230091014602A80C
:10206000FFF7ECFD02990398049ECA0F4900D207BE
:1020700000920F22490892028C1A0021002800DBEE
:102080000C46450013486D08844214D3079A002A71
:1020900004DA441E0026104DF64302E004460D46C5
:1020A0000E46102108460020C046002F03D0042110
:1020B00008460020C0462005E90A08430099084365
:1020C0006905F20A1143ADE602C0FFFF013C0000C2
:1020D000FF3F0000FF070000FFFFFF7F00B585B056
:1020E000019300920A460146002302A8FFF79CFED6
:1020F00002A807C8A8E7FFB50A461F4685B007999A
:10210000019301230091014602A8FFF78DFE029979
:102110000398049ECA0F4900D20700920F22490873
:1021200092028C1A0021002800DB0C464500114861
:102130006D08844214D3079A002A04DA441E00264C
:102140000D4DF64302E004460D460E4610210846AA
:102150000020C046002F03D0042108460020C046BE
:102160002005E90A0843009908436905F20A11436A
:1021700058E60000FF070000FFFFFF7FF7B50546A8
:102180000C46C8680521C904884301218905084314
:10219000E060800602D5204600F0C5F97249E0688B
:1021A0000140022903D0204600F05CF9BEE0052181
:1021B000012249030140D20391420FD1C00306D549
:1021C0006168E06A884200D80846606006E02069DD
:1021D000E06260606069FFF74EFCA061A1680022C8
:1021E000EEB200290EDAE06883050BD4C943A16082
:1021F0000921226049030843E0606068411C616076
:102200000670AEE0E068012149030843E060002069
:1022100020602069002831D16069FFF71EFC01258C
:1022200027462437ED02002816D0A0898005800FAC
:1022300008D0E069FEF7A6F90028206102D0E06826
:10224000284318E001202761E061E06803210902CA
:102250008843012189020DE0E069FEF793F9002827
:102260002061EFD0E0682843E0608105890F03D149
:10227000FF2101310843E06020696060E2683B4F64
:102280002569D00520D56168E06A884200D80846F3
:10229000411B05D02246284600F0EEF8002845D123
:1022A0000298002804D0E56200206560A06055E037
:1022B000681CE0626060E069401EA060E06838432E
:1022C000E06030462E70FEBD0298002801D03A40F2
:1022D00009E06068411C61600670E06838430A2EBE
:1022E000E06006D00022E16A6068814203D90B46B3
:1022F00002E00122F7E70346A7895B1B7F0504D4B0
:10230000E7699F4201DD002A1ED0814200D80146C4
:102310000F1A0020E5626560002BA06009DD2246EF
:102320001946284600F0A8F8002802D00020C04333
:10233000FEBD002F08D0A069E5626560C01BA061EA
:10234000E06810210843E0600298002809D0616825
:10235000A069E562491B40186560A0610120C04387
:10236000FEBD3046FEBD00008210000000000100EE
:10237000F8B5044616460D464769007B800730D005
:102380003846FFF76AFB00282BD132461026002A78
:1023900025D0012A02D0022A23D104E0204600F0F1
:1023A00049F945191BE03846FFF765FBE168314301
:1023B0000028E16004DA204600F054F80120F8BD5E
:1023C000C9030BD56268E16A914200D81146A2693F
:1023D00089182269891A814200DD08462D18002DCE
:1023E00001DA0220F8BDE16A6068E268814206D243
:1023F0009103E06203D5012149048A433243A6696F
:10240000AE4211DCE16A814201D90B4600E003468D
:102410009F192369FF1AAF4206DD814201D90F4699
:1024200000E007469F4206D1202002430020A06022
:10243000A56220600DE0AD1BE669AE1B8142A6607F
:1024400000D90846C01A281A206058196060202058
:102450008243034802400020E26040342072F8BD0D
:10246000BFCFD7FFC1688022114392039143C1605F
:102470000021816001607047F7B515460C4682B0B7
:10248000506900903748D768074209D0A969009879
:10249000FFF7E9FA002815DB3248C0430740EF6038
:1024A000314EB44200D826463B4632460299009847
:1024B000FFF7C4FA4200A9695208B21A8918002825
:1024C000A96106D02846FFF7CDFF0020C04305B024
:1024D000F0BDA41BE4D10020F9E770B504460569FE
:1024E000C06A6168884200D80846E1680522D204C3
:1024F0009143E160C90314D5A84209D02246411B8B
:102500002846FFF7B9FF002802D00020C04370BD65
:10251000E56200206560A060E0680121090488434D
:10252000E060002070BD10B50446C06820218843DB
:10253000E060A16AA06988420ED02046FFF7CDFF77
:10254000E06803210903884310210843E060A06A82
:10255000A0612069E06260600449E0680840E060D2
:1025600010BD000010000200FFFFFF7FBFBFFFFF94
:1025700070B505460C460A2000E06D1C00F054F8CA
:10258000002D06D028780028F7D102E0641C00F066
:102590004BF8002C02D020780028F7D10A2000F058
:1025A00043F870BD10B5014602A0FFF7E1FF01201E
:1025B00010BD000053494752545245443A205265D9
:1025C0006469726563743A2063616E2774206F706A
:1025D000656E3A200000000010B5012805D00021EA
:1025E00003A0FFF7C5FF012010BD09A1F8E7000017
:1025F00053494752544D454D3A204F7574206F66EC
:102600002068656170206D656D6F72790000000053
:102610003A2048656170206D656D6F727920636F37
:10262000727275707465640008B56946087003209D
:10263000ABBE08BD10B50146C268900703D0900636
:1026400007D5886A0AE000F091F801210160881E30
:1026500010BD8B694868C0180B69C01A40310B7AED
:10266000002B02D0497A401A10BD1103FCD5002876
:10267000FADD401E10BD000030B5441C03E00178B7
:10268000401C00290DD08107F9D10B4BDD0104C896
:10269000D11A91432940FAD0001B0A0603D0C01E6C
:1026A00030BD001B30BD0A0401D0801E30BD0902C0
:1026B000FCD0401E30BD00000101010182078B07E4
:1026C0009A423FD170B5920F0AD0032402780B785A
:1026D000401C491C002A33D09A4231D12042F5D106
:1026E000214EF40104C808C9951B9543254018D113
:1026F0009A420FD104C808C9951B9543254010D1B3
:102700009A4207D104C808C9951B9543254008D1B2
:102710009A42E7D012BA1BBA01209A4200D2404234
:1027200070BD12BA1BBA2DBA18241000E04019006F
:10273000E140401A05D12E00E64002D1083CF4D118
:10274000D01A70BD02780B78401C491C002A09D0B1
:102750009A4207D102780B78401C491C002A01D00C
:102760009A42EFD0D01A704701010101004870472A
:1027700014010020EFF3108072B60000F0B582B0B3
:1027800004462420205C012802D1022002B0F0BDC2
:10279000174625462435012028706A78012A2DD154
:1027A000022068700020E06325682A6801260196EF
:1027B000B2432A60A26CE66C5660226D0092002A39
:1027C00002D0626DA66D5660226C1C261640019ADE
:1027D000B2401C4E366816431A4A16606B60A368F6
:1027E000102B3A4600D00A46AA60102B00D039467A
:1027F000E960216B002907D00E210AE00021297031
:102800008021E16302B0F0BD296804229143296070
:102810000A212A680A432A6001990902626C136836
:10282000DB0302D513680B431360009B002B02D01F
:102830001A680A431A602968019A1143296002B094
:10284000F0BDC04604000240B0B5044600F0E0F818
:102850000546601C02D090480078041900F0D8F8B2
:10286000401BA042FAD3B0BDF0B58BB008900C6805
:10287000002C00D1B9E05E48089A824201D00520C0
:1028800000E0032001902032009200231F461D46E5
:1028900009930A93049110E02043574A10600A9A62
:1028A000521C0C6820460A92D040099A08320992BC
:1028B0003F1DAD1C002800D197E0012602960A9822
:1028C000864034400594EAD0496803220C461440FF
:1028D000601E01280797069213D81046A840089F4B
:1028E000BA6882430498C068A8401043B860C8061C
:1028F000C00F0A9988407A68B24302437A60069A08
:10290000079F032C0499089B1DD01046A840DA6845
:1029100082438868A8401043069AD860022C12D1DE
:102920001C2038400F2181400A9AD2089200009F53
:10293000BC588C4304990E69864026430499BE50C6
:10294000069A079F089B1046A8401C688443486865
:10295000860303961040A840204318600398800F18
:102960009DD00A989043234A1418276E052000072B
:10297000089A82420AD02148824205D020488242E9
:10298000019E04D1022602E0029E00E000261820EB
:10299000099A10400F2282409743603486403E439C
:1029A0002660144800684E68F20202D5059C204358
:1029B00001E0059CA043079F0E4A10605068B202D8
:1029C00001D5204300E0A0430A4A50600A4840680D
:1029D000B20301D5204300E0A043074A50601068CD
:1029E000F20300D558E7A04357E70BB0F0BDC0464F
:1029F000000C0050001802408018024000040050F3
:102A00000008005000690840411E884170470000DE
:102A1000054800687047C0461F48007802490A68A8
:102A2000101808607047C0467403002010B50124D8
:102A3000200208490A6802430A60032000F00CF8EB
:102A4000002801D0204610BD00F02AF800242046BE
:102A500010BDC04600200240B0B505460E480178C2
:102A60000124002916D07D20C00002F003FA01469F
:102A70003948006802F0FEF900F086FC032D09D801
:102A8000002807D10024E0432946224600F01EF822
:102A9000024805602046B0BD100000201400002050
:102AA00082B00948416801221143416041681140E8
:102AB00001910199110702680A4302600068084009
:102AC0000090009802B070473C100240002805D4E6
:102AD0000322034693430A4A9A1803E00C22024059
:102AE000064BD2188007C00E8901C9B28140FF236E
:102AF00083401068984308431060704714ED00E06D
:102B000000E400E0F0B581B00146032460026E4DA0
:102B10002A6882430A432A60012253020020994214
:102B200014D1EE4909686B695B050FD59602062240
:102B30004A430A490746104602F09CF901463846C6
:102B4000891C491E04D06A693242FAD101B0F0BD35
:102B5000204601B0F0BDC0460C00002040420F00EE
:102B6000F0B587B0064680788007564F01D4002024
:102B700064E0049601221107203F38680840039062
:102B800006D13868084338603868084006900698CF
:102B900001970291059217024B4C20683843206040
:102BA000FFF736FF054626683E4006D1FFF730FFA7
:102BB000401B0328F7D3032000E00020002E414FE4
:102BC00001D1049E32E0032529023A680A40049E9E
:102BD00022D073699A421FD03A68059B1B043C6857
:102BE0001C433C603C689C433C6013468B433B6009
:102BF000D10711D02C460590FFF70AFF0546334E4A
:102C00003868800706D4FFF703FF401BB042F7D3B4
:102C1000204600E00598049E002807D1032000020A
:102C2000396881437069084338600020039900299E
:102C300004D1019B1968029A914319603168CA074F
:102C400007D03A46083A13680324A34374681C4328
:102C5000146005908A0608D5032212033B46083B00
:102C60001C689443B26822431A6001204B0412D5B9
:102C70003B46083B1C68164D2C40324636693443AF
:102C80001C606B1C9E42164605D103043C46503C1A
:102C900025681D432560090510D5810303239B0387
:102CA0003C46083C25689D43F3681D4325608B42E4
:102CB00004D10104503F3A680A433A60059807B0CE
:102CC000F0BDC0465C100240007000408913000057
:102CD000FFFFFF3FF0B583B00D46014601200029FC
:102CE00000D1ABE00291019071480068072738409D
:102CF000A84213D26E490868B843284308606D4C57
:102D0000FFF786FE06466A4800683840A84205D0AC
:102D1000FFF77EFE801BA042F5D9AAE0029B18684F
:102D200081078F4C0CD5410703D5390322680A432C
:102D300022600F21090222688A43996811432160A9
:102D4000C00718D15A4800683840A8422AD95849C3
:102D50000868B84328430860564CFFF759FE0646FA
:102D6000534800683840A8421CD0FFF751FE801B32
:102D7000A042F5D97DE05968032900D982E0880096
:102D800001A2125801989746992D0008792E000843
:102D9000332E0008412E00082246083A12685205D8
:102DA00051D44BE0029A107840076D4C05D538039A
:102DB00021688143D0680843206020688006400F66
:102DC0001FD0226838210A406648082A20D022688D
:102DD0000A40102A5BD1616803220A40032A00D00E
:102DE000614861684906490F491C02F043F861686F
:102DF0004904490E48436168490F491C02F03AF8FA
:102E000006E02046083800688004410F5648C84054
:102E1000216889093C220A40274989581F220A4013
:102E2000D0402E49086025480068FFF715FE03B022
:102E3000F0BD2246083A1268920104D403B0F0BDF6
:102E4000A26D9207FAD52068B84308432060FFF7C7
:102E5000DFFD064620683821014002984068C00026
:102E6000814200D16EE7FFF7D3FD801B11498842F4
:102E7000F0D9032003B0F0BD2246083A126892034D
:102E8000DCD5E0E7606D80070198D7D5DBE72068E7
:102E90000840202802D10120C003B9E7206808407B
:102EA000182801D00020B3E77D200002B0E7C0461B
:102EB0000020024088130000A852000814000020DF
:102EC0000648006826490968890A1C220A40044904
:102ED00089581F220A40D0407047C0460C0000208D
:102EE000E852000810B51E4C20688006400F06D03E
:102EF000226838210A401B48082A07D110BD083C27
:102F000020688004410F1848C84010BD22680A405C
:102F1000102A15D1616803220A40032A00D0124802
:102F200061684906490F491C01F0A4FF6168490422
:102F3000490E48436168490F491C01F09BFF10BDD1
:102F400020680840202802D10120C00310BD20685D
:102F50000840182801D0002010BD7D20000210BDBF
:102F60000810024000127A000024F400F0B587B087
:102F70000127002800D1F4E1049705900078C007EC
:102F8000F94E1ED10598007880073AD4059800784C
:102F9000000767D405980078400700D46AE1B0685C
:102FA00038210140202900D0B2E0F06D800700D424
:102FB0005DE105988068002800D058E100200127D5
:102FC00056E1B068F16803273A468A433821014048
:102FD0001020484082185042504108294FD0002804
:102FE0004DD1306805994B68052109048B42039344
:102FF00000D1BFE001210A04934200D0C2E0104397
:10300000C5E0B1683820084010214140F26803252E
:103010002A4002235340CA18514251410127BC02A1
:10302000002836D0002934D103953068059AD1683C
:10303000002900D1C8E00721C90288431169014372
:1030400031603802316801433160FFF7E1FC054629
:103050003068204200D0C8E0FFF7DAFC401B0228AD
:10306000F6D9C0E0B06838210140182939D1306E56
:1030700080078FD50598806900288BD126E13068BC
:10308000800300D47EE705984068002800D079E7E7
:103090001CE131682142059B03D0D968002900D189
:1030A0005FE17F21090272688A435969090211436D
:1030B000716000280DD10720C00231688143186972
:1030C0000843306030688004400FA849C140A848D8
:1030D0000160A8480068FFF7BFFC002800D040E16D
:1030E00054E7306E05998969002900D187E00121F4
:1030F00008433066FFF78CFC0546306E800700D52C
:1031000048E7FFF785FC401B03270228F5D928E193
:10311000012003900107F06B0840029006D1F06B8C
:103120000843F063F06B0840069006980191924FB7
:103130003868C00510D4039804023868204338600A
:10314000FFF766FC05463868204205D1FFF760FCB2
:10315000401B0228F7D978E0F06D05998F68052F9C
:103160005ED0012F60D003998843F065F06D042193
:1031700088435BE001218A04104330600904306811
:10318000084304E09043306089043068884330602D
:1031900001204404FFF73CFC0546039800280FD0AB
:1031A0003068204200D0EDE6FFF732FC401B642877
:1031B000F6D9D6E0FFF72CFC401B642800D9D0E0FC
:1031C00030682042F6D1DDE6390288433060FFF7EF
:1031D0001FFC05463068204200D1D7E6FFF718FCF7
:1031E000401B0228F6D9039FBBE07F2000027168D4
:1031F000814305984069000208437060C6E60121DA
:1032000088433066FFF704FC0546306E800700D423
:10321000C0E6FFF7FDFB401B03270228F5D9A0E01D
:1032200004210843F065F06D03990843F065FFF74A
:10323000EFFB0546514C002F0FD0F06D80070FD4E7
:10324000FFF7E6FB401BA042F7D9002003270FE061
:10325000FFF7DEFB401BA042F7D8F06D8007F7D4E4
:103260000298002803D1F06B01998843F063012094
:10327000002876D00598C769002F71D0B068382132
:103280000140102924D1012F20D0F06803210140F2
:10329000059B1A6A914219D1702101405A6A9142E4
:1032A00014D17F21090201409A6A120291420DD184
:1032B0001F2149040140DA6A914207D107214907D9
:1032C0000840196B8842049F4AD04AE0049F48E0B6
:1032D00001210A06306803929043306004914C0645
:1032E000FFF796FB0546022F09D13068204210D027
:1032F000FFF78EFB401B03270228F6D931E0306828
:10330000204229D0FFF784FB401B03270228F6D96F
:1033100027E0F0681B490140059F2037ADCF0843E7
:1033200010431902014329433943F160306803997E
:103330000843306004980007F1680143F160FFF72B
:1033400067FB0546306820420AD1FFF761FB401B4E
:1033500003270228F6D904E0F06809490140F1602A
:103360000027F8B207B0F0BD001002400024F400BE
:103370000C000020140000200070004088130000A2
:10338000FCFFFEEF8C80C11F401E010E01D001200A
:1033900070470749074A5060074803680B400321FC
:1033A000890759180160002090600721116070475B
:1033B000FFFFFF0010E000E020ED00E0F0B581B07D
:1033C0003C22825C012A02D1022001B0F0BD0246FB
:1033D0003C32012313703F242402CD68A5430F24FF
:1033E000A4028E68A6432E434C681D4D25403543EC
:1033F0000C681C4E26402E430C691B4D254035435E
:103400004C692C43194D25400C6B194E26402E4318
:10341000CC6934438D692D04164E2E402643046832
:103420009848844201D0354614E0134806400F46C0
:103430002037A1CFC96A00913F0519460F4B3B4089
:10344000334311267606B04318434B079D4305438B
:103450000098054300201070656401B0F0BDC046BF
:10346000FF87F0EFFF8FF0EFFF9FF0EFFFBFF0EF70
:10347000FFFFF0EF0000FFEFFFFF0FDC0000F0DCCC
:10348000F0B53C22825C012A01D10220F0BD024647
:103490003C3202235370012313700068466884682D
:1034A000784DA84201D0374604E00F273F05BE43C0
:1034B0004F6837437026B7430E683E434660A842C4
:1034C00002D06E4DA84204D18025AC4389682143C7
:1034D0008160002010705370F0BDC046B0B5002868
:1034E00019D005463C356978002905D1002129709D
:1034F000044600F059F820460221697001680C6802
:10350000604A914202D05D4B994206D170239C43A0
:103510008368234302E00120B0BD2346204CA14232
:1035200008DD91420CD01F4CA14209D0544CA1425D
:1035300006D033E0514CA14202D02B4CA1422DD1F8
:1035400003242402A34304691C4380239C4383690E
:1035500023430B60C368CB6243688B62914205D002
:10356000104A914202D0464A914201D14069086313
:10357000012048610A69D20702D00A6982430A61C0
:103580002873A870E87028716871A871E8712872B2
:103590006872A872E87268700020B0BD1C46D4E75B
:1035A000FF2B01400048014082B000683449884246
:1035B0000ED00D49884215D10120C0030B490A687D
:1035C00002430A60096801400191019802B0704706
:1035D0000120400405490A6802430A600968014065
:1035E0000091009802B07047002000404010024057
:1035F0007047000080B586B00021059104910391C9
:103600000291019100681D4A90421FD0F24A9042F7
:103610000FD0F04A90422ED11B48026801231A4372
:103620000260006818400090180201900098022083
:1036300017E01548026801231A4302600068184029
:10364000009040200190009805200AE00E4A13687F
:10365000012003431360126802400092802201920D
:10366000009A059004910391022002900520000722
:1036700001A9FFF7F9F806B080BDC046000400407C
:1036800000440140002C014034100240F0B582B0EB
:103690003C23C35C012B01D1022397E104463C3457
:1036A000012323700225EA41052A00D98CE1C04696
:1036B0007A4412795200974402744057248A02686F
:1036C000106A136A0126B3431362A8438E68064347
:1036D00050680B6801939569F54FBA4206D0F64BD6
:1036E0009A4203D0F54B9A4200D00FE10C239E433F
:1036F000CB680427BB43EE4F3343BA4200D008E106
:103700000DE10268136AB6487330156A0540156208
:1037100057688D6801950D680095566DF94DAA4260
:1037200006D0E54DAA4203D0E44DAA4200D09FE066
:103730000740486905023D439BE00268106A012387
:103740001D02166AAE4316625B0298438B681F0225
:10375000074350680B680193D569EA4B9A4253D0EE
:103760003E469A425CD161E00268156A0123180363
:10377000166A8643166250688E6801960E68009637
:10378000D769E04EB24206D0CB4EB24203D0CB4E08
:10379000B24200D09FE09E03B0434E69B60106439B
:1037A0009AE00268106A136A1025AB431362202363
:1037B00098438B681F01074350680B680193936916
:1037C000D04DAA423BD03E46AA4242D147E00268D1
:1037D000156A01231805166A8643166250688E68BA
:1037E00001960E680096576DC64EB24206D0B24E94
:1037F000B24203D0B14EB24200D0C5E09E04B04305
:103800004E69B6020643C0E00326B602B743764BC4
:10381000FF3BCE6836021E40BA4B3E439A4205D06B
:10382000A54B9A4202D0A54B9A423ED103231B03DB
:1038300098434B698F691F433B01034336E0C02621
:10384000B743CE6836014025AE43AE4D3E43AA4253
:1038500005D0994DAA4202D0984DAA4267D10325BE
:10386000AD02A8434D698F692F43BD0005435FE05A
:103870003D46104654305560594DED1C2E40009D7C
:103880002E4356654D68956501256D04AB43019D3A
:103890002D041D431562536D08251D435565536D59
:1038A0000425AB43536509698AE0034610461C3082
:1038B00053604B4B1D40019B1D43D5614B68D36347
:1038C0001662D36908251D43D561D3690425AB432E
:1038D000D361096974E0064610461C305660414EBB
:1038E0003740009E36023E43D6614E6816645E0342
:1038F000B543019E36032E431662DD02D6692E4380
:10390000D6619B02D5699D43D56157E03346BA42E3
:1039100005D0FB4EB24202D0FA4EB2421ED103266F
:103920003602B0434E698F6906433E4317E00546B1
:103930001046183055602B4D2B40019D2D021D4324
:1039400095614B68936316620123DD0296692E43ED
:1039500096619B0295699D4395612FE0064610464E
:10396000183056601E4E3540019E354395614D68B6
:1039700055631362936908251D4395619369042576
:10398000AB43936109691BE006461046543056600C
:10399000124E3740009E36023E4356654E68D6654D
:1039A0005E05B543019E36052E431662DD02566D57
:1039B0002E4356659B02556D9D4355650969090265
:1039C00002680A430260002300202070184602B0FB
:1039D000F0BDC046002C014000440140FF8FFFFEB7
:1039E0008CFFFEFFFF8CFFFEFFFBFFFFB0B5002842
:1039F00019D005463C356978002905D10021297088
:103A0000044600F05FF820460221697001680C68E6
:103A1000BE4A914202D0BC4B994206D170239C43CE
:103A20008368234302E00120B0BD2346214CA1421C
:103A300008DD91420CD0B24CA14209D0B14CA14258
:103A400006D033E0B04CA14202D01D4CA1422DD192
:103A500003242402A34304691C4380239C438369F9
:103A600023430B60C368CB6243688B62914205D0ED
:103A7000A34A914202D0A34A914201D1406908630E
:103A8000012048610A69D20702D00A6982430A61AB
:103A90002873A870E87028716871A871E87128729D
:103AA0006872A872E87268700020B0BD1C46D4E746
:103AB000002C0140FF2B0140004801400044014020
:103AC0000020004082B000688F4988420ED08F49A4
:103AD000884214D10120C0020B494A6802434A605F
:103AE000496801400191019802B070470648016899
:103AF000022211430160006810400090009802B05B
:103B00007047C046002C01403C100240704770478F
:103B1000F0B581B0002906D00C1F0225EC41042C21
:103B200003D3432402E03E2400E03F34045D022C32
:103B300001D10224D8E0002906D00C1F0225EC4157
:103B4000042C03D3432402E03E2400E03F34055D0F
:103B50000124012D00D0C7E0002A00D1C4E0002BD1
:103B600000D1C1E004463E3400290DD00E1F0225CD
:103B7000EE41032E11D8C0467E4436797600B74414
:103B8000010A0608657009E00225257006E0E57067
:103B900004E0257102E0A57000E0657102250C4685
:103BA000EC41032C6DD80D467C4424796400A74475
:103BB00001471930416A4E4CCC62416A4D4C0C634E
:103BC000416A4D4C4C63416A0646046834340846E9
:103BD00011462246FEF7D2FD0124002800D083E0E2
:103BE000610243E0C16A424CCC62C16A414C0C6341
:103BF000C16A414C4C63C16A064604683C340846BD
:103C000011462246FEF7BAFD012400286CD1E102DC
:103C10002CE0016B364CCC62016B364C0C63016BB3
:103C2000354C4C63016B0646046840340846114627
:103C30002246FEF7A3FD0124002855D1210315E0FB
:103C4000816A2B4CCC62816A2A4C0C63816A2A4CB3
:103C50004C63816A06460468383408461146224699
:103C6000FEF78CFD012400283ED1A10230463268C7
:103C7000D3680B43D360002401222946002A04D1D3
:103C800032E001240022002A2ED01F2211400122FE
:103C900013468B400068016A99430162016A194327
:103CA00001621649884204DC1749884211D017493D
:103CB00003E01349884202D0F349884211D1D1036D
:103CC000436C0B4343641149884202D00E49884239
:103CD00007D183680E491940062905D0130499427B
:103CE00002D0016811430160204601B0F0BDC0461A
:103CF0003D420008A5420008DD420008FF430140A4
:103D0000004801400044014000040040002C0140F4
:103D100007000100B0B58421415C012901D10220D6
:103D2000B0BD0146843124224A60026813681468D9
:103D30000125AC4314606C07A34313600022426664
:103D400010460A7020224A60B0BD0000F0B581B074
:103D500004466834227F012A02D1022001B0F0BD5E
:103D60000546883524222A60066832680092336846
:103D7000012293433360227707235B06B7689F4392
:103D80000F43B760406E002815D0B768B068400F89
:103D90002E49095C2E4A105CC00001F06BF860806F
:103DA0003801400F2949095C294A105CC00001F024
:103DB00061F8024600E062800098306022800020B6
:103DC00020772021296001B0F0BDC046F0B581B058
:103DD00004466834227F012A02D1022001B0F0BDDE
:103DE0000546883524222A600668326800923368C6
:103DF000012293433360227707235B07B7689F4311
:103E00000F43B760406E002815D0B768B068400F08
:103E10000E49095C0E4A105CC00001F02BF860806E
:103E20003801400F0949095C094A105CC00001F0E3
:103E300021F8024600E06280009830602280002075
:103E400020772021296001B0F0BDC046285300082A
:103E500020530008B0B500281ED00446054684351E
:103E60006868002804D100202870204600F02AF855
:103E700024206860206801680125A9430160A06AC8
:103E8000002802D0204600F051FA204600F01AFB2C
:103E9000002803D02846B0BD0120B0BD0920C002D3
:103EA00021684A6882434A6088682A229043886071
:103EB0000868012202430A60204600F0A1FA054684
:103EC0002846B0BDB0B58CB000240B940A94099478
:103ED000089407940694059404940394029401941E
:103EE0000068D149884201D00CB0B0BD02940125D0
:103EF000019501A8FEF734FE002801D0FEF73AFC38
:103F0000A8032B49CA680243CA60CA6802400092EB
:103F10000098022008900A6802430A60096801407C
:103F200000910B940A940994C020079000980348CC
:103F300007A9FEF799FC0CB0B0BDC04600040050C4
:103F4000FEE70000F0B587B00026069605960496B9
:103F50000396029616480168022211430160016827
:103F60001140019101990168042211430160016827
:103F700011400191019901680127394301600068EE
:103F80003840019001980496039602970520040793
:103F900002AD20462946FEF767FC049703960620EB
:103FA000029020462946FEF75FFC07B0F0BDC046F0
:103FB0003410024010B50948002181616322084B8A
:103FC000FF24403418C00160426081600838FFF768
:103FD00085FA002801D0FEF7CDFB10BDE4010020DA
:103FE0000020004010B594B0002413941294119452
:103FF00010940F940E940D9468463421FCF7A9F99F
:104000001F482049204A14C0046041608460C46095
:1040100004610838FFF762FA002801D0FEF7AAFB16
:104020001748FFF7E3FC002801D0FEF7A3FB0E942E
:1040300060200D900F9410941194129413941048D2
:104040000DA92246FFF722FB002801D0FEF792FBC4
:10405000049403940294019400940C940694012017
:104060004003059006486946FFF7A8F9002801D0EB
:10407000FEF780FB0248FFF7BDFA14B010BDC04642
:1040800030020020FFFF00000044014010B598B04E
:104090000024179416941594149413941294119464
:1040A00010940F940E9401A83421FCF752F924487F
:1040B0005021244A14C0046041608460C4600461DB
:1040C0000838FFF793FC002801D0FEF753FB179444
:1040D000169415941A4815A9FFF7D2F9002801D0B3
:1040E000FEF748FB0F9460200E90109411941294E8
:1040F0001394149412480EA92246FFF7C7FA002819
:1041000001D0FEF737FB05940494039402940194C4
:104110000D940C940B940994089407940120410683
:104120000A9140030690064801A9FFF747F90028C5
:1041300001D0FEF71FFB0248FFF75CFA18B010BD74
:1041400098010020002C014010B58AB01B480024C3
:10415000846150211A4A14C004604160846009944B
:10416000089407940694059404940394029401948B
:1041700000940838FFF73AFC002801D0FEF7FAFA5D
:10418000099407940D4807A9FFF77AF9002801D090
:10419000FEF7F0FA0494029401946020009007481E
:1041A00069460422FFF772FA002801D0FEF7E2FA0E
:1041B0000248FFF71FFA0AB010BDC0467C0200207B
:1041C0000004004010B5174800210C22164B016274
:1041D00041628162E124640218C001604160816033
:1041E000C260016141610838FFF734FE002801D048
:1041F000FEF7C0FA0B480021FFF7E8FD002801D0C8
:10420000FEF7B8FA07480021FFF7A0FD002801D00B
:10421000FEF7B0FA0348FFF77DFD002801D0FEF756
:10422000A9FA10BDC802002000380140FEE770471F
:10423000704780B5FEF7F0FB80BD704710B5846A0B
:1042400021463E31626A824210D0A26A824214D074
:10425000E26A824219D0226B82421DD10822227763
:10426000C069002818D10120C87015E0012222770A
:10427000C069002810D10A700EE002222277C069BE
:10428000002809D10120487006E004222277C06985
:10429000002801D1012088702046FFF737FC00205C
:1042A000207710BD10B5846A616A81420AD0A16A84
:1042B000814209D0E16A814208D0216B814207D155
:1042C000082004E0012002E0022000E00420207722
:1042D0002046FFF71CFC0020207710BD10B5846A33
:1042E00021463D31626A82420BD0A26A82420BD0E3
:1042F000E26A82420CD0226B82420DD0012008700B
:104300000EE0012048700AE001208870022006E0DB
:104310000120C870042002E00120087108202077E5
:104320002046FFF765F90020207710BDB0B5816AFF
:104330000A070CD4CA0714D18A071CD44A0724D40C
:10434000CA062CD48A0634D44A063CD44CE0012256
:10435000D20303685C689443826B22435A60CA07A5
:10436000EAD00122520403685C689443C26A224383
:104370005A608A07E2D50122120403685C689443FC
:10438000026B22435A604A07DAD50122920403687D
:104390005C689443426B22435A60CA06D2D501221C
:1043A000120303689C689443C26B22439A608A0696
:1043B000CAD50122520303689C689443026C2243CD
:1043C0009A604A0610D501221305026854689C437E
:1043D000456C2C4354609D4206D103235B05546811
:1043E0009C43836C23435360090607D50121C9040C
:1043F000026853688B43C06C18435060B0BD000026
:10440000F0B583B00446064684360027F760FEF711
:10441000FFFA03462068006800071ED52848009070
:10442000012002904105002220463D461F4600F033
:104430000FF93B462F4600280FD0EFF3108002996A
:1044400081F3108821680A6880239A430A6080F308
:1044500010880320202288212EE020680068400771
:1044600023D5174800900125A9050022204600F019
:10447000EFF8002819D0EFF3108085F31088092198
:104480004901226813688B43136080F31088EFF3AF
:10449000108085F3108821688A68AA438A6080F3B7
:1044A0001088032020228C2106E020207060B0605C
:1044B000E76670213A4638466250377003B0F0BD67
:1044C000FFFFFF01F0B581B0044600680168534A60
:1044D0000A40A16823690B4365691D431543E169DF
:1044E0000D4305600322120343689343E2681A43B5
:1044F0004260A269236A13438268494D15401D43F7
:104500008560C26A0F239A43636A1343C362454AB4
:10451000904209D0444A904208D14448006880073C
:10452000000F43A2135802E0002300E010232646A8
:1045300068360125EA034248914211D1082B62D81E
:104540000027C0467B441B795B009F44045C265CCB
:104550001B5C5C5C2500FEF7B3FC00281FD149E022
:10456000082B55D80027C0467B441B795B009F442D
:10457000044F2D4F0E4F4F4F2C00FEF7A1FC00288B
:1045800026D137E0FEF7AEFC002808D132E0FEF776
:10459000A9FC00281CD12DE0104600282AD0616A11
:1045A0004900284A515A00F065FC400061684A08F9
:1045B000101800F05FFC0246103A23498A421AD2D2
:1045C00001400007400F084312E01046002811D0B8
:1045D000616A49001B4A515A00F04CFC61684A0864
:1045E000101800F047FC01461039174A914202D2D8
:1045F0002168C8603D461548306000206067A067AC
:10460000284601B0F0BD002001270028C7D1F1E7FE
:10461000002001270028DBD1ECE7C046F369FFCF7B
:10462000FFF4FF11004400400038014054100240E4
:10463000000000000400000002000000080000006C
:104640000024F40008530008F0FF000001000100FE
:10465000F0B585B004930F4604460068C069084071
:10466000401A414241410020914200D090E016465C
:1046700002902046843001900A9D01200090C002E3
:10468000039007E02068C0693840C01B41424141A7
:10469000B14247D1681CF5D0FEF7BAF901460320B4
:1046A000002D00D174E0049A891AA94200D96FE064
:1046B000206801684907E5D5402FE3D0802FE1D07D
:1046C000C169090731D4C169039A1142DAD003994B
:1046D0000162EFF31080012282F310880921490161
:1046E00023681D688D431D6080F31088EFF31080F0
:1046F00082F3108821688B68264D1D408D6080F301
:104700001088E36E03202021012B39D1EFF31083B1
:1047100082F31088226815681026B543156083F36C
:1047200010882DE0029805B0F0BD08210162EFF37A
:104730001080009E86F310880922520123681D68AC
:1047400095431D6080F31088EFF3108086F3108886
:10475000226893680F4D1D40956080F31088E06ECD
:1047600001280CD1EFF31082012080F31088236818
:104770001D681026B5431D6082F3108800E03046A6
:104780002022019B9A600022E26662671A70D9605B
:1047900005B0F0BDFEFFFFEFF0B581B0FF242202AF
:1047A000134E0B253046294600F0C6F81148124F2B
:1047B00031463A46FBF7A8FD104E304629462246C0
:1047C00000F0BAF80B4831463A46FBF79DFD22044B
:1047D0000B4C2046294600F0AFF8064821463A46E1
:1047E000FBF792FD0748084900F04AF801B0F0BD18
:1047F000640300203F4A00080000000888010020F0
:10480000780100205C0300200D48000880B50520D9
:1048100000070221FEF7F6F880BD10B50446012816
:1048200006D8012404E000F08DFA002806D0804765
:104830002046FBF7A7FE0028F5D010BD002010BDD4
:1048400070B582B00C46054600260196042900D8B2
:104850000424012D08D8012506E000F073FA002891
:104860000CD080470020019001A821462A46FBF782
:10487000E0FE01980028F0D002B070BD3046FBE7A2
:1048800010B504460020A071607121608847C143C3
:104890002171A279A171D14381436171204610BD7C
:1048A00080B5052000070221FEF7ACF880BD0000AE
:1048B000F0B583B00446067B6027774360373846FF
:1048C00000F0D3FB05463946FBF743FD0096701C0C
:1048D000C0B2012800D8012001942168002402956B
:1048E0002B4627460C227A438D582246AE589E50BE
:1048F000121D602AFAD160337F1C8742F2D118243E
:10490000009B634318330A480021029D2A46FFF7A3
:10491000FFF80198037B63431833064804212A46B5
:10492000FFF7F6F8284600F04FFA03B0F0BDC04696
:10493000980100207C020020F0B587B0154604469F
:1049400001730027076047608760491C00F0B4F8D6
:10495000266800946468A6424CD10098007B0390BE
:1049600000285DD0E9B2009800680190280CC3B21D
:10497000280A86B23A46029704E0049A521C039829
:1049800082424DD00C2004925043019A1258104696
:104990003C4604E0352780C0641C082C07D007275C
:1049A00067403546FD40ED07F4D11A27F3E714467A
:1049B0002034082004E0352780C4401C102807D08C
:1049C0000F2545400F46EF40FD07F4D11A27F3E7C6
:1049D00040320820029F03E0352410C20028CCD0CA
:1049E000401E1C46C440E407F6D11A24F5E70C36F5
:1049F000A642B2D0059703CE091A8A10083E172A9C
:104A000009D81820811A05AA304600F041F90C3661
:104A1000A642EFD1A1E76029E9D060307060E6E7F7
:104A2000009C2068002106910C21039A51434018F4
:104A3000182106AA00F0D6F8204607B0F0BD70B5E0
:104A400004460568002D14D06668AE420DD00C3EB9
:104A500004E030460C38AE42064606D030680028E6
:104A6000F7D0706000F0B0F9F3E76560206800F0FF
:104A7000ABF9204670BD0000034800F007F8C046BF
:104A8000014800F003F8C04672530008014601488F
:104A900000F002F83053000883B080B581B00446BE
:104AA00003A80EC003AA009202482146FBF713FE9A
:104AB000FBF718FEC0000020F0B587B00E46044694
:104AC00045688268501B811043484143B14222D25D
:104AD00005942768E91B04918C104443A3193F49AE
:104AE0008B4274D8D21B921050434200934200D3A1
:104AF0001A4613463A4A90421A4600D30A46002AFA
:104B000003941AD08A4265D80C205043029200F0D8
:104B1000ACFA069014E0002E0CD00C214E430C3E53
:104B20003046FBF719FC761A0C3628463146FBF75F
:104B300010FC7519656007B0F0BD0020069002906A
:104B40000C2466430C3E304621460194FBF704FCDE
:104B5000761A0C360398604306990C1820463146A5
:104B6000FBF7F7FB30190390029801994843069927
:104B70000E180498241AAF421DD038462146002250
:104B80000A604A608A6043684B6003680B60836810
:104B90008B600260426082600C310C30A842EED122
:104BA00000E00C37AF4206D038680028F9D07860B2
:104BB00000F00AF9F5E70599039848608E600868E7
:104BC0000C60002801D000F0FFF807B0F0BD059898
:104BD000FFF752FF00F0D8F8ABAAAAAA5555551511
:104BE000AAAAAA0AF0B581B015460E460446006886
:104BF000A168091A89108E4226D9002806D0606063
:104C000000F0E2F8002020606060A060B00F3BD1AF
:104C10002068A168091A4810864200D33046474AE6
:104C2000474B994200D3104690422DD88700384612
:104C300000F01BFAC11920606060A160B1002A6811
:104C400004C0091FFCD11CE061680A1A93109E423F
:104C5000009300D83346002B04D007462A6804C7C7
:104C60005B1EFBD1009AB24209D29000B200101A2A
:104C70002A6804C1001FFBD1616001B0F0BDB10022
:104C80004018606001B0F0BD2046FFF7F9FEC04655
:104C9000F0B585B004464068A3681D1AAD10A9425E
:104CA00020D92768C01B0490801006464018850F45
:104CB0003ED10397DB1B5F10B84200D307461F4865
:104CC0001F4DAB4200D30746002F15D001918742FC
:104CD00031D815460297B80000F0C7F907462A46B2
:104CE00001990BE0002904D08900136808C0091F4E
:104CF000FBD1606005B0F0BD00270297B0003D1801
:104D00008800116802C5001FFBD13846039E31465A
:104D1000049AFBF7C1FA0298810079182760656050
:104D2000A160002E02D0304600F04EF805B0F0BD74
:104D30002046FFF7A5FE00F027F8C046FFFFFF3F23
:104D4000FCFFFF7F014800687047C04674010020E7
:104D500001A0FFF7A1FEC0466261645F616C6C6FE9
:104D60006320776173207468726F776E20696E209C
:104D70002D666E6F2D657863657074696F6E732034
:104D80006D6F64650000000001A0FFF785FEC0465E
:104D90006261645F61727261795F6E65775F6C6595
:104DA0006E67746820776173207468726F776E2005
:104DB000696E202D666E6F2D657863657074696FFE
:104DC0006E73206D6F64650080B5FBF70CFC80BDD1
:104DD00092B0FDF72BFE05AC34212046FBF7B9FA63
:104DE0000026049603960296019601277802FDF7A5
:104DF00089FE780711907804109008200F900E9685
:104E000002250D950C9540200A90099638020890CD
:104E100005952046FEF7AAF8002823D104960396AC
:104E200007200190029501A82946FDF753FF0028AD
:104E30001BD1FFF787F8FFF729F9FFF785F9FFF78F
:104E4000C1F9FFF7B7F8FFF7CDF8094C05A8FFF750
:104E500027FD0028FAD02046FFF72AFD1420FDF791
:104E6000F3FCF3E7EFF3108072B6EFF3108072B645
:104E70007801002043088B421AD3002203098B4299
:104E800079D3030A8B425ED3030B8B4242D3030CCC
:104E90008B4227D30902FF2212BA030C8B4202D3A2
:104EA0001212090203D0030B8B4233D31AE0D3E072
:104EB000411A8041401C704703460B4371D443089C
:104EC0008B42F5D3002203098B4254D3030A8B4251
:104ED00039D3030B8B421DD3030C8B4202D3944670
:104EE0006EE0090AC30B8B4201D3CB03C01A5241B7
:104EF000830B8B4201D38B03C01A5241430B8B426D
:104F000001D34B03C01A5241030B8B4201D30B0355
:104F1000C01A5241C30A8B4201D3CB02C01A52417C
:104F2000830A8B4201D38B02C01A5241430A8B423F
:104F300001D34B02C01A5241030A8B4201D30B0228
:104F4000C01A5241CDD2C3098B4201D3CB01C01A42
:104F5000524183098B4201D38B01C01A524143094C
:104F60008B4201D34B01C01A524103098B4201D33A
:104F70000B01C01A5241C3088B4201D3CB00C01AA7
:104F8000524183088B4201D38B00C01A524143081F
:104F90008B4201D34B00C01A5241411A52411000BA
:104FA0007047CA0F00D04942031000D3404253401B
:104FB00000229C4603098B422DD3030A8B4212D355
:104FC0008901FC2212BA030A8B420CD38901921187
:104FD0008B4208D3890192118B4204D3890137D0C7
:104FE000921100E08909C3098B4201D3CB01C01A99
:104FF000524183098B4201D38B01C01A52414309AC
:105000008B4201D34B01C01A524103098B4201D399
:105010000B01C01A5241C3088B4201D3CB00C01A06
:10502000524183088B4201D38B00C01A5241D9D21E
:1050300043088B4201D34B00C01A5241411A00D29F
:1050400001465241104663465B1000D34042704710
:1050500063465B1000D3404201B50021004201D0FD
:10506000C9430846C046C04602BD80B5FFF7D5FB20
:10507000002800D080BDFFF76BFE80B5FFF7F5FF7D
:1050800080BD80B5FFF7DCFB002800D080BDFFF7B6
:105090005FFE80B5FFF7F5FF80BDF8B5040C8BB25D
:1050A000264682B25E43104658430D0C370C360438
:1050B00000218019164679416E43370C3604801959
:1050C000264679416E438919F8BD00004900CA029D
:1050D0000243100000D004204A0D01D001221043E9
:1050E000044A490D914201D102210843012800D10F
:1050F00005207047FF07000030380A2801D2012040
:1051000070470020704710B58A68002A03DC00222F
:10511000FDF734F810BD521E8A604A68C0B2531CB5
:105120004B60107010BD000010B500290AD008783F
:10513000002807D005487844FDF7C0FA002801D0C0
:10514000002010BD0248784410BD00006602000037
:105150005E02000010B500290AD00878002807D0A8
:1051600005487844FDF7AAFA002801D0002010BDB8
:105170000248784410BD0000560200004E020000B4
:1051800003B402487844844603BC60475DC0FFFF17
:1051900003B402487844844603BC6047C5C2FFFF9D
:1051A0000000000000000000303132333435363763
:1051B000383941424344454640305800303132335B
:1051C000343536373839616263646566403078005B
:1051D00004000008000000000000000200010000C0
:1051E000103A7474003A7474003A747400303132B6
:1051F00033343536373839616263646566787000F8
:1052000030313233343536373839414243444546FC
:105210005850000002400000000000A00000000004
:1052200005400000000000C8000000000C40000025
:105230000000409C00000000194000000020BCBE9F
:105240000000000034400000BFC91B8E00000004B5
:10525000B5400000504BCFD06607E2CF0100000000
:105260006C4100003E8251AADFEEA734010000002D
:10527000D9420000DCB5A0E23A301F97FFFFFFFFE4
:10528000B4450000FD25A0C8E9A3C14FFFFFFFFF03
:10529000FF3F00000000008000000000FF3F000012
:1052A000000000800000000000000000000000007E
:1052B00000000000000000000000000000000000EE
:1052C00000000000000000000100000002000000DB
:1052D00003000000040000000600000007000000BA
:1052E00008000000090000000000000000000000AD
:1052F00000000000000000000100000002000000AB
:105300000300000004000000010002000400060089
:1053100008000A000C00100020004000800000017E
:105320000101010307010000080402040801010152
:105330006C656E6774685F6572726F7220776173F7
:10534000207468726F776E20696E202D666E6F2DE7
:10535000657863657074696F6E73206D6F64652026
:1053600077697468206D65737361676520222573A2
:105370002200766563746F7200000000D05400084C
:1053800000000020180000001C010008E85400087C
:1053900018000020600900003C0100081C0000000B
:1053A00043000000F8FFFFFF0C0000000E000000AB
:1053B0000F0000002E00000010010000430000005C
:1053C000F8FFFFFF00404040404040404040414126
:1053D00041414140404040404040404040404040CA
:1053E0004040404040050202020202020202020264
:1053F0000202020202202020202020202020200261
:1054000002020202020290909090909010101010F0
:10541000101010101010101010101010101010108C
:105420000202020202028888888888880808080820
:1054300008080808080808080808080808080808EC
:105440000202020240000000000000000000000014
:10545000000000000000000000000000000000004C
:10546000000000000000000000000000000000003C
:10547000000000000000000000000000000000002C
:10548000000000000000000000000000000000001C
:10549000000000000000000000000000000000000C
:1054A00000000000000000000000000000000000FC
:1054B00000000000000000000000000000000000EC
:1054C0000000000000000000D1F2FFFF000000001B
:1054D0000000000000000000000000000024F400B4
:0854E0000100000004000000BF
:04000005080000C12E
:00000001FF
